{
  "_format": "hh-sol-artifact-1",
  "contractName": "Staking",
  "address": "0x7fD79c36FeBc0e38cBBb552AaA468a244Ab2a9da",
  "sourceName": "contracts/Staking.sol",
  "abi": [
    {
      "inputs": [
        {
          "internalType": "address",
          "name": "nft",
          "type": "address"
        },
        {
          "internalType": "address",
          "name": "token",
          "type": "address"
        }
      ],
      "stateMutability": "nonpayable",
      "type": "constructor"
    },
    {
      "inputs": [],
      "name": "EMISSION_RATE",
      "outputs": [
        {
          "internalType": "uint256",
          "name": "",
          "type": "uint256"
        }
      ],
      "stateMutability": "view",
      "type": "function"
    },
    {
      "inputs": [],
      "name": "MintProductNFT",
      "outputs": [
        {
          "internalType": "contract IERC721",
          "name": "",
          "type": "address"
        }
      ],
      "stateMutability": "view",
      "type": "function"
    },
    {
      "inputs": [],
      "name": "buidlToken",
      "outputs": [
        {
          "internalType": "contract BuidlToken",
          "name": "",
          "type": "address"
        }
      ],
      "stateMutability": "view",
      "type": "function"
    },
    {
      "inputs": [
        {
          "internalType": "address",
          "name": "staker",
          "type": "address"
        }
      ],
      "name": "calculateReward",
      "outputs": [
        {
          "internalType": "uint256",
          "name": "",
          "type": "uint256"
        }
      ],
      "stateMutability": "view",
      "type": "function"
    },
    {
      "inputs": [
        {
          "internalType": "address",
          "name": "",
          "type": "address"
        },
        {
          "internalType": "address",
          "name": "",
          "type": "address"
        },
        {
          "internalType": "uint256",
          "name": "",
          "type": "uint256"
        },
        {
          "internalType": "bytes",
          "name": "",
          "type": "bytes"
        }
      ],
      "name": "onERC721Received",
      "outputs": [
        {
          "internalType": "bytes4",
          "name": "",
          "type": "bytes4"
        }
      ],
      "stateMutability": "nonpayable",
      "type": "function"
    },
    {
      "inputs": [
        {
          "internalType": "uint256",
          "name": "tokenId",
          "type": "uint256"
        }
      ],
      "name": "stakeNFT",
      "outputs": [],
      "stateMutability": "nonpayable",
      "type": "function"
    },
    {
      "inputs": [
        {
          "internalType": "address",
          "name": "",
          "type": "address"
        }
      ],
      "name": "stakeTokenId",
      "outputs": [
        {
          "internalType": "uint256",
          "name": "",
          "type": "uint256"
        }
      ],
      "stateMutability": "view",
      "type": "function"
    },
    {
      "inputs": [
        {
          "internalType": "address",
          "name": "",
          "type": "address"
        }
      ],
      "name": "tokenStakedAt",
      "outputs": [
        {
          "internalType": "uint256",
          "name": "",
          "type": "uint256"
        }
      ],
      "stateMutability": "view",
      "type": "function"
    },
    {
      "inputs": [
        {
          "internalType": "uint256",
          "name": "tokenId",
          "type": "uint256"
        }
      ],
      "name": "unStakeNFT",
      "outputs": [],
      "stateMutability": "nonpayable",
      "type": "function"
    }
  ],
  "bytecode": "0x608060405262015180670de0b6b3a76400006200001d919062000115565b6003553480156200002d57600080fd5b50604051620010ad380380620010ad8339818101604052810190620000539190620001b7565b816000806101000a81548173ffffffffffffffffffffffffffffffffffffffff021916908373ffffffffffffffffffffffffffffffffffffffff16021790555080600160006101000a81548173ffffffffffffffffffffffffffffffffffffffff021916908373ffffffffffffffffffffffffffffffffffffffff1602179055505050620001fe565b6000819050919050565b7f4e487b7100000000000000000000000000000000000000000000000000000000600052601260045260246000fd5b60006200012282620000dc565b91506200012f83620000dc565b925082620001425762000141620000e6565b5b828204905092915050565b600080fd5b600073ffffffffffffffffffffffffffffffffffffffff82169050919050565b60006200017f8262000152565b9050919050565b620001918162000172565b81146200019d57600080fd5b50565b600081519050620001b18162000186565b92915050565b60008060408385031215620001d157620001d06200014d565b5b6000620001e185828601620001a0565b9250506020620001f485828601620001a0565b9150509250929050565b610e9f806200020e6000396000f3fe608060405234801561001057600080fd5b50600436106100935760003560e01c80636eb604e0116100665780636eb604e014610134578063a679c2ff14610150578063b935195c1461016c578063d82e39621461018a578063e8cf70e3146101ba57610093565b806301b8199a146100985780630ff83d68146100b6578063150b7a02146100d457806319551d3514610104575b600080fd5b6100a06101ea565b6040516100ad91906107d6565b60405180910390f35b6100be6101f0565b6040516100cb9190610870565b60405180910390f35b6100ee60048036038101906100e99190610a4f565b610214565b6040516100fb9190610b0d565b60405180910390f35b61011e60048036038101906101199190610b28565b610228565b60405161012b91906107d6565b60405180910390f35b61014e60048036038101906101499190610b55565b610240565b005b61016a60048036038101906101659190610b55565b610461565b005b610174610697565b6040516101819190610ba3565b60405180910390f35b6101a4600480360381019061019f9190610b28565b6106bd565b6040516101b191906107d6565b60405180910390f35b6101d460048036038101906101cf9190610b28565b6107a5565b6040516101e191906107d6565b60405180910390f35b60035481565b60008054906101000a900473ffffffffffffffffffffffffffffffffffffffff1681565b600063150b7a0260e01b9050949350505050565b60046020528060005260406000206000915090505481565b3373ffffffffffffffffffffffffffffffffffffffff1660008054906101000a900473ffffffffffffffffffffffffffffffffffffffff1673ffffffffffffffffffffffffffffffffffffffff16636352211e836040518263ffffffff1660e01b81526004016102b091906107d6565b602060405180830381865afa1580156102cd573d6000803e3d6000fd5b505050506040513d601f19601f820116820180604052508101906102f19190610bd3565b73ffffffffffffffffffffffffffffffffffffffff1614610347576040517f08c379a000000000000000000000000000000000000000000000000000000000815260040161033e90610c5d565b60405180910390fd5b60008054906101000a900473ffffffffffffffffffffffffffffffffffffffff1673ffffffffffffffffffffffffffffffffffffffff166342842e0e3330846040518463ffffffff1660e01b81526004016103a493929190610c8c565b600060405180830381600087803b1580156103be57600080fd5b505af11580156103d2573d6000803e3d6000fd5b5050505042600460003373ffffffffffffffffffffffffffffffffffffffff1673ffffffffffffffffffffffffffffffffffffffff1681526020019081526020016000208190555080600560003373ffffffffffffffffffffffffffffffffffffffff1673ffffffffffffffffffffffffffffffffffffffff1681526020019081526020016000208190555050565b80600560003373ffffffffffffffffffffffffffffffffffffffff1673ffffffffffffffffffffffffffffffffffffffff16815260200190815260200160002054146104e2576040517f08c379a00000000000000000000000000000000000000000000000000000000081526004016104d990610d0f565b60405180910390fd5b60006104ed336106bd565b905060008054906101000a900473ffffffffffffffffffffffffffffffffffffffff1673ffffffffffffffffffffffffffffffffffffffff166342842e0e3033856040518463ffffffff1660e01b815260040161054c93929190610c8c565b600060405180830381600087803b15801561056657600080fd5b505af115801561057a573d6000803e3d6000fd5b50505050600160009054906101000a900473ffffffffffffffffffffffffffffffffffffffff1673ffffffffffffffffffffffffffffffffffffffff166379c6506833836040518363ffffffff1660e01b81526004016105db929190610d2f565b600060405180830381600087803b1580156105f557600080fd5b505af1158015610609573d6000803e3d6000fd5b50505050600560003373ffffffffffffffffffffffffffffffffffffffff1673ffffffffffffffffffffffffffffffffffffffff16815260200190815260200160002060009055600460003373ffffffffffffffffffffffffffffffffffffffff1673ffffffffffffffffffffffffffffffffffffffff168152602001908152602001600020600090555050565b600160009054906101000a900473ffffffffffffffffffffffffffffffffffffffff1681565b600080600460008473ffffffffffffffffffffffffffffffffffffffff1673ffffffffffffffffffffffffffffffffffffffff1681526020019081526020016000205403610740576040517f08c379a000000000000000000000000000000000000000000000000000000000815260040161073790610da4565b60405180910390fd5b6000600460008473ffffffffffffffffffffffffffffffffffffffff1673ffffffffffffffffffffffffffffffffffffffff168152602001908152602001600020544261078d9190610df3565b90506003548161079d9190610e27565b915050919050565b60056020528060005260406000206000915090505481565b6000819050919050565b6107d0816107bd565b82525050565b60006020820190506107eb60008301846107c7565b92915050565b600073ffffffffffffffffffffffffffffffffffffffff82169050919050565b6000819050919050565b600061083661083161082c846107f1565b610811565b6107f1565b9050919050565b60006108488261081b565b9050919050565b600061085a8261083d565b9050919050565b61086a8161084f565b82525050565b60006020820190506108856000830184610861565b92915050565b6000604051905090565b600080fd5b600080fd5b60006108aa826107f1565b9050919050565b6108ba8161089f565b81146108c557600080fd5b50565b6000813590506108d7816108b1565b92915050565b6108e6816107bd565b81146108f157600080fd5b50565b600081359050610903816108dd565b92915050565b600080fd5b600080fd5b6000601f19601f8301169050919050565b7f4e487b7100000000000000000000000000000000000000000000000000000000600052604160045260246000fd5b61095c82610913565b810181811067ffffffffffffffff8211171561097b5761097a610924565b5b80604052505050565b600061098e61088b565b905061099a8282610953565b919050565b600067ffffffffffffffff8211156109ba576109b9610924565b5b6109c382610913565b9050602081019050919050565b82818337600083830152505050565b60006109f26109ed8461099f565b610984565b905082815260208101848484011115610a0e57610a0d61090e565b5b610a198482856109d0565b509392505050565b600082601f830112610a3657610a35610909565b5b8135610a468482602086016109df565b91505092915050565b60008060008060808587031215610a6957610a68610895565b5b6000610a77878288016108c8565b9450506020610a88878288016108c8565b9350506040610a99878288016108f4565b925050606085013567ffffffffffffffff811115610aba57610ab961089a565b5b610ac687828801610a21565b91505092959194509250565b60007fffffffff0000000000000000000000000000000000000000000000000000000082169050919050565b610b0781610ad2565b82525050565b6000602082019050610b226000830184610afe565b92915050565b600060208284031215610b3e57610b3d610895565b5b6000610b4c848285016108c8565b91505092915050565b600060208284031215610b6b57610b6a610895565b5b6000610b79848285016108f4565b91505092915050565b6000610b8d8261083d565b9050919050565b610b9d81610b82565b82525050565b6000602082019050610bb86000830184610b94565b92915050565b600081519050610bcd816108b1565b92915050565b600060208284031215610be957610be8610895565b5b6000610bf784828501610bbe565b91505092915050565b600082825260208201905092915050565b7f4552523a4e4f0000000000000000000000000000000000000000000000000000600082015250565b6000610c47600683610c00565b9150610c5282610c11565b602082019050919050565b60006020820190508181036000830152610c7681610c3a565b9050919050565b610c868161089f565b82525050565b6000606082019050610ca16000830186610c7d565b610cae6020830185610c7d565b610cbb60408301846107c7565b949350505050565b7f4552523a4e590000000000000000000000000000000000000000000000000000600082015250565b6000610cf9600683610c00565b9150610d0482610cc3565b602082019050919050565b60006020820190508181036000830152610d2881610cec565b9050919050565b6000604082019050610d446000830185610c7d565b610d5160208301846107c7565b9392505050565b7f4552523a4e530000000000000000000000000000000000000000000000000000600082015250565b6000610d8e600683610c00565b9150610d9982610d58565b602082019050919050565b60006020820190508181036000830152610dbd81610d81565b9050919050565b7f4e487b7100000000000000000000000000000000000000000000000000000000600052601160045260246000fd5b6000610dfe826107bd565b9150610e09836107bd565b9250828203905081811115610e2157610e20610dc4565b5b92915050565b6000610e32826107bd565b9150610e3d836107bd565b9250828202610e4b816107bd565b91508282048414831517610e6257610e61610dc4565b5b509291505056fea26469706673582212208d0c3ef8e792e1e334aa87cb7702cceb750cdfdf2e7d75f42453db3b11c0415464736f6c63430008120033",
  "linkReferences": {},
  "deployedLinkReferences": {}
}